8=FIX.4.2|9=74|35=A|34=1|49=SERVER|52=20201109-12:33:04.000|56=CLIENT1|98=0|108=30|141=Y|10=223|